{
  "contractName": "Donations",
  "abi": [
    {
      "anonymous": false,
      "inputs": [
        {
          "indexed": false,
          "internalType": "string",
          "name": "name",
          "type": "string"
        },
        {
          "indexed": false,
          "internalType": "uint256",
          "name": "amount",
          "type": "uint256"
        }
      ],
      "name": "AmountTransferred",
      "type": "event"
    },
    {
      "anonymous": false,
      "inputs": [
        {
          "indexed": false,
          "internalType": "string",
          "name": "name",
          "type": "string"
        },
        {
          "indexed": false,
          "internalType": "uint256",
          "name": "amount",
          "type": "uint256"
        }
      ],
      "name": "AmountUpdated",
      "type": "event"
    },
    {
      "anonymous": false,
      "inputs": [
        {
          "indexed": false,
          "internalType": "string",
          "name": "name",
          "type": "string"
        },
        {
          "indexed": false,
          "internalType": "uint256",
          "name": "amount",
          "type": "uint256"
        }
      ],
      "name": "CharityCreated",
      "type": "event"
    },
    {
      "inputs": [
        {
          "internalType": "string",
          "name": "_name",
          "type": "string"
        }
      ],
      "name": "createCharity",
      "outputs": [],
      "stateMutability": "nonpayable",
      "type": "function"
    },
    {
      "inputs": [
        {
          "internalType": "string",
          "name": "_name",
          "type": "string"
        }
      ],
      "name": "updateAmount",
      "outputs": [],
      "stateMutability": "payable",
      "type": "function",
      "payable": true
    },
    {
      "inputs": [
        {
          "internalType": "address",
          "name": "_charityAddress",
          "type": "address"
        },
        {
          "internalType": "string",
          "name": "_name",
          "type": "string"
        }
      ],
      "name": "transferAmount",
      "outputs": [],
      "stateMutability": "nonpayable",
      "type": "function"
    }
  ],
  "bytecode": "0x608060405234801561001057600080fd5b50610972806100206000396000f3fe6080604052600436106100345760003560e01c806364be5548146100395780636f09951414610062578063e9792a261461007e575b600080fd5b34801561004557600080fd5b50610060600480360381019061005b9190610525565b6100a7565b005b61007c60048036038101906100779190610525565b610142565b005b34801561008a57600080fd5b506100a560048036038101906100a091906105cc565b610211565b005b604051806040016040528082815260200160008152506000826040516100cd91906106a2565b908152602001604051809103902060008201518160000190805190602001906100f7929190610328565b50602082015181600101559050507f01a6ce7af72e2d4e86dc79acf75093a92aaf41a0613bb0daa1927103a5055245816000604051610137929190610752565b60405180910390a150565b3460008260405161015391906106a2565b90815260200160405180910390206001015461016f91906107b1565b60008260405161017f91906106a2565b9081526020016040518091039020600101819055507f48604ed45f656f57c09e68156c6a24a45b62031595e9da147982a3cb4211cda86000826040516101c591906106a2565b90815260200160405180910390206000016000836040516101e691906106a2565b90815260200160405180910390206001015460405161020692919061090c565b60405180910390a150565b6000808260405161022291906106a2565b908152602001604051809103902060010154905060008390508073ffffffffffffffffffffffffffffffffffffffff166108fc839081150290604051600060405180830381858888f19350505050158015610281573d6000803e3d6000fd5b506000808460405161029391906106a2565b9081526020016040518091039020600101819055507f36905c08951f73ff292b9394afac8b5420779c8d24cd1cf9b46b67bf9a467ad16000846040516102d991906106a2565b90815260200160405180910390206000016000856040516102fa91906106a2565b90815260200160405180910390206001015460405161031a92919061090c565b60405180910390a150505050565b82805461033490610836565b90600052602060002090601f016020900481019282610356576000855561039d565b82601f1061036f57805160ff191683800117855561039d565b8280016001018555821561039d579182015b8281111561039c578251825591602001919060010190610381565b5b5090506103aa91906103ae565b5090565b5b808211156103c75760008160009055506001016103af565b5090565b6000604051905090565b600080fd5b600080fd5b600080fd5b600080fd5b6000601f19601f8301169050919050565b7f4e487b7100000000000000000000000000000000000000000000000000000000600052604160045260246000fd5b610432826103e9565b810181811067ffffffffffffffff82111715610451576104506103fa565b5b80604052505050565b60006104646103cb565b90506104708282610429565b919050565b600067ffffffffffffffff8211156104905761048f6103fa565b5b610499826103e9565b9050602081019050919050565b82818337600083830152505050565b60006104c86104c384610475565b61045a565b9050828152602081018484840111156104e4576104e36103e4565b5b6104ef8482856104a6565b509392505050565b600082601f83011261050c5761050b6103df565b5b813561051c8482602086016104b5565b91505092915050565b60006020828403121561053b5761053a6103d5565b5b600082013567ffffffffffffffff811115610559576105586103da565b5b610565848285016104f7565b91505092915050565b600073ffffffffffffffffffffffffffffffffffffffff82169050919050565b60006105998261056e565b9050919050565b6105a98161058e565b81146105b457600080fd5b50565b6000813590506105c6816105a0565b92915050565b600080604083850312156105e3576105e26103d5565b5b60006105f1858286016105b7565b925050602083013567ffffffffffffffff811115610612576106116103da565b5b61061e858286016104f7565b9150509250929050565b600081519050919050565b600081905092915050565b60005b8381101561065c578082015181840152602081019050610641565b8381111561066b576000848401525b50505050565b600061067c82610628565b6106868185610633565b935061069681856020860161063e565b80840191505092915050565b60006106ae8284610671565b915081905092915050565b600082825260208201905092915050565b60006106d582610628565b6106df81856106b9565b93506106ef81856020860161063e565b6106f8816103e9565b840191505092915050565b6000819050919050565b6000819050919050565b6000819050919050565b600061073c61073761073284610703565b610717565b61070d565b9050919050565b61074c81610721565b82525050565b6000604082019050818103600083015261076c81856106ca565b905061077b6020830184610743565b9392505050565b7f4e487b7100000000000000000000000000000000000000000000000000000000600052601160045260246000fd5b60006107bc8261070d565b91506107c78361070d565b9250827fffffffffffffffffffffffffffffffffffffffffffffffffffffffffffffffff038211156107fc576107fb610782565b5b828201905092915050565b7f4e487b7100000000000000000000000000000000000000000000000000000000600052602260045260246000fd5b6000600282049050600182168061084e57607f821691505b6020821081141561086257610861610807565b5b50919050565b60008190508160005260206000209050919050565b6000815461088a81610836565b61089481866106b9565b945060018216600081146108af57600181146108c1576108f4565b60ff19831686526020860193506108f4565b6108ca85610868565b60005b838110156108ec578154818901526001820191506020810190506108cd565b808801955050505b50505092915050565b6109068161070d565b82525050565b60006040820190508181036000830152610926818561087d565b905061093560208301846108fd565b939250505056fea2646970667358221220afbc2f34aaaa2c0094960b57b9ed7844b32d4ba308b7607b1a95c3f474d2254d64736f6c634300080a0033",
  "immutableReferences": {},
  "source": "pragma solidity >=0.4.22 <0.9.0;\r\n\r\ncontract Donations {\r\n\r\n    struct Charity {\r\n        string name;\r\n        uint amount;\r\n    }\r\n\r\n    event CharityCreated(\r\n        string name,\r\n        uint amount\r\n    );\r\n\r\n    event AmountUpdated(\r\n        string name,\r\n        uint amount\r\n    );\r\n\r\n    event AmountTransferred(\r\n        string name,\r\n        uint amount\r\n    );\r\n\r\n    mapping(string => Charity) charities;\r\n\r\n    function createCharity(string memory _name) public {\r\n        charities[_name] = Charity(_name, 0);\r\n        emit CharityCreated(_name, 0);\r\n    }\r\n\r\n    function updateAmount(string memory _name) public payable {\r\n        charities[_name].amount = charities[_name].amount + msg.value;\r\n        emit AmountUpdated(charities[_name].name, charities[_name].amount);\r\n    }\r\n\r\n    function transferAmount(address _charityAddress, string memory _name) public {\r\n        uint _amount = charities[_name].amount;\r\n        address payable _address = payable(_charityAddress);\r\n        _address.transfer(_amount);\r\n        charities[_name].amount = 0;\r\n        emit AmountTransferred(charities[_name].name, charities[_name].amount);\r\n    }\r\n}",
  "sourcePath": "G:\\PROJECTS\\philanthropy_blockchain_project\\contracts\\Donations.sol",
  "compiler": {
    "name": "solc",
    "version": "0.8.10+commit.fc410830.Emscripten.clang"
  },
  "schemaVersion": "3.4.3",
  "updatedAt": "2021-12-07T15:48:54.928Z",
  "networkType": "ethereum",
  "devdoc": {
    "kind": "dev",
    "methods": {},
    "version": 1
  },
  "userdoc": {
    "kind": "user",
    "methods": {},
    "version": 1
  }
}