{
  "contractName": "Donations",
  "abi": [
    {
      "anonymous": false,
      "inputs": [
        {
          "indexed": false,
          "internalType": "address payable",
          "name": "charityAccount",
          "type": "address"
        },
        {
          "indexed": false,
          "internalType": "uint256",
          "name": "amount",
          "type": "uint256"
        }
      ],
      "name": "DonationMade",
      "type": "event"
    },
    {
      "inputs": [
        {
          "internalType": "address",
          "name": "_charityAddress",
          "type": "address"
        }
      ],
      "name": "makeDonation",
      "outputs": [],
      "stateMutability": "payable",
      "type": "function",
      "payable": true
    }
  ],
  "bytecode": "0x608060405234801561001057600080fd5b506101eb806100206000396000f3fe60806040526004361061001e5760003560e01c806302ac60db14610023575b600080fd5b61003d60048036038101906100389190610125565b61003f565b005b8073ffffffffffffffffffffffffffffffffffffffff166108fc349081150290604051600060405180830381858888f19350505050158015610085573d6000803e3d6000fd5b507faa13962bc79c7a0bc42cb8169b1705f0a6b55cc404ffb8a589d771ca7867597881346040516100b792919061018c565b60405180910390a150565b600080fd5b600073ffffffffffffffffffffffffffffffffffffffff82169050919050565b60006100f2826100c7565b9050919050565b610102816100e7565b811461010d57600080fd5b50565b60008135905061011f816100f9565b92915050565b60006020828403121561013b5761013a6100c2565b5b600061014984828501610110565b91505092915050565b600061015d826100c7565b9050919050565b61016d81610152565b82525050565b6000819050919050565b61018681610173565b82525050565b60006040820190506101a16000830185610164565b6101ae602083018461017d565b939250505056fea26469706673582212201b3e8230be9aeb13ed5062596ddc99493ec41dc102c2e169d58d426ad443320e64736f6c634300080a0033",
  "immutableReferences": {},
  "source": "pragma solidity >=0.4.22 <0.9.0;\r\n\r\ncontract Donations {\r\n\r\n    event DonationMade(\r\n        address payable charityAccount,\r\n        uint amount\r\n    );\r\n\r\n    function makeDonation(address _charityAddress) public payable {\r\n        (payable(_charityAddress)).transfer(msg.value);\r\n        emit DonationMade(payable(_charityAddress), msg.value);\r\n    }\r\n}",
  "sourcePath": "C:\\Users\\Win 10 Pc\\Desktop\\EDAI\\Philanthropy-Blockchain-Project\\contracts\\Donations.sol",
  "compiler": {
    "name": "solc",
    "version": "0.8.10+commit.fc410830.Emscripten.clang"
  },
  "schemaVersion": "3.4.3",
  "updatedAt": "2021-12-05T11:44:25.737Z",
  "networkType": "ethereum",
  "devdoc": {
    "kind": "dev",
    "methods": {},
    "version": 1
  },
  "userdoc": {
    "kind": "user",
    "methods": {},
    "version": 1
  }
}