{
  "contractName": "Donations",
  "abi": [
    {
      "anonymous": false,
      "inputs": [
        {
          "indexed": false,
          "internalType": "string",
          "name": "id",
          "type": "string"
        },
        {
          "indexed": false,
          "internalType": "string",
          "name": "name",
          "type": "string"
        },
        {
          "indexed": false,
          "internalType": "uint256",
          "name": "amount",
          "type": "uint256"
        }
      ],
      "name": "AmountTransferred",
      "type": "event"
    },
    {
      "anonymous": false,
      "inputs": [
        {
          "indexed": false,
          "internalType": "string",
          "name": "id",
          "type": "string"
        },
        {
          "indexed": false,
          "internalType": "string",
          "name": "name",
          "type": "string"
        },
        {
          "indexed": false,
          "internalType": "uint256",
          "name": "amount",
          "type": "uint256"
        }
      ],
      "name": "AmountUpdated",
      "type": "event"
    },
    {
      "anonymous": false,
      "inputs": [
        {
          "indexed": false,
          "internalType": "string",
          "name": "id",
          "type": "string"
        },
        {
          "indexed": false,
          "internalType": "string",
          "name": "name",
          "type": "string"
        },
        {
          "indexed": false,
          "internalType": "uint256",
          "name": "amount",
          "type": "uint256"
        }
      ],
      "name": "CharityCreated",
      "type": "event"
    },
    {
      "inputs": [
        {
          "internalType": "string",
          "name": "_id",
          "type": "string"
        },
        {
          "internalType": "string",
          "name": "_name",
          "type": "string"
        }
      ],
      "name": "createCharity",
      "outputs": [],
      "stateMutability": "nonpayable",
      "type": "function"
    },
    {
      "inputs": [
        {
          "internalType": "string",
          "name": "_id",
          "type": "string"
        },
        {
          "internalType": "uint256",
          "name": "_amount",
          "type": "uint256"
        }
      ],
      "name": "updateAmount",
      "outputs": [],
      "stateMutability": "nonpayable",
      "type": "function"
    },
    {
      "inputs": [
        {
          "internalType": "address",
          "name": "_charityAddress",
          "type": "address"
        },
        {
          "internalType": "string",
          "name": "_id",
          "type": "string"
        }
      ],
      "name": "transferAmount",
      "outputs": [],
      "stateMutability": "payable",
      "type": "function"
    }
  ],
  "bytecode": "0x608060405234801561001057600080fd5b50610a7e806100206000396000f3fe6080604052600436106100345760003560e01c80631e29a8031461003957806397b4fc2c14610062578063e9792a261461008b575b600080fd5b34801561004557600080fd5b50610060600480360381019061005b9190610586565b6100a7565b005b34801561006e57600080fd5b50610089600480360381019061008491906105e2565b610179565b005b6100a560048036038101906100a091906106b8565b61023a565b005b806000836040516100b8919061078e565b9081526020016040518091039020600201546100d491906107d4565b6000836040516100e4919061078e565b9081526020016040518091039020600201819055507fd8478a37684a273716190aa42fd0e5d376fac7a3486cc6e9bfb59af1fc089b238260008460405161012b919061078e565b908152602001604051809103902060010160008560405161014c919061078e565b90815260200160405180910390206002015460405161016d93929190610979565b60405180910390a15050565b604051806060016040528083815260200182815260200160008152506000836040516101a5919061078e565b908152602001604051809103902060008201518160000190805190602001906101cf929190610353565b5060208201518160010190805190602001906101ec929190610353565b50604082015181600201559050507fe8ab2a8ab146dd58143f5870b36abd6413828ca11f5cf4f980bab575072183628282600060405161022e93929190610a03565b60405180910390a15050565b6000808260405161024b919061078e565b908152602001604051809103902060020154905060008390508073ffffffffffffffffffffffffffffffffffffffff166108fc839081150290604051600060405180830381858888f193505050501580156102aa573d6000803e3d6000fd5b50600080846040516102bc919061078e565b9081526020016040518091039020600201819055507f155114d46fb010fc5c1a79c9312e2e407d3dca04e6b73240f1ee4cc6e812fc8b83600085604051610303919061078e565b9081526020016040518091039020600101600086604051610324919061078e565b90815260200160405180910390206002015460405161034593929190610979565b60405180910390a150505050565b82805461035f906108a3565b90600052602060002090601f01602090048101928261038157600085556103c8565b82601f1061039a57805160ff19168380011785556103c8565b828001600101855582156103c8579182015b828111156103c75782518255916020019190600101906103ac565b5b5090506103d591906103d9565b5090565b5b808211156103f25760008160009055506001016103da565b5090565b6000604051905090565b600080fd5b600080fd5b600080fd5b600080fd5b6000601f19601f8301169050919050565b7f4e487b7100000000000000000000000000000000000000000000000000000000600052604160045260246000fd5b61045d82610414565b810181811067ffffffffffffffff8211171561047c5761047b610425565b5b80604052505050565b600061048f6103f6565b905061049b8282610454565b919050565b600067ffffffffffffffff8211156104bb576104ba610425565b5b6104c482610414565b9050602081019050919050565b82818337600083830152505050565b60006104f36104ee846104a0565b610485565b90508281526020810184848401111561050f5761050e61040f565b5b61051a8482856104d1565b509392505050565b600082601f8301126105375761053661040a565b5b81356105478482602086016104e0565b91505092915050565b6000819050919050565b61056381610550565b811461056e57600080fd5b50565b6000813590506105808161055a565b92915050565b6000806040838503121561059d5761059c610400565b5b600083013567ffffffffffffffff8111156105bb576105ba610405565b5b6105c785828601610522565b92505060206105d885828601610571565b9150509250929050565b600080604083850312156105f9576105f8610400565b5b600083013567ffffffffffffffff81111561061757610616610405565b5b61062385828601610522565b925050602083013567ffffffffffffffff81111561064457610643610405565b5b61065085828601610522565b9150509250929050565b600073ffffffffffffffffffffffffffffffffffffffff82169050919050565b60006106858261065a565b9050919050565b6106958161067a565b81146106a057600080fd5b50565b6000813590506106b28161068c565b92915050565b600080604083850312156106cf576106ce610400565b5b60006106dd858286016106a3565b925050602083013567ffffffffffffffff8111156106fe576106fd610405565b5b61070a85828601610522565b9150509250929050565b600081519050919050565b600081905092915050565b60005b8381101561074857808201518184015260208101905061072d565b83811115610757576000848401525b50505050565b600061076882610714565b610772818561071f565b935061078281856020860161072a565b80840191505092915050565b600061079a828461075d565b915081905092915050565b7f4e487b7100000000000000000000000000000000000000000000000000000000600052601160045260246000fd5b60006107df82610550565b91506107ea83610550565b9250827fffffffffffffffffffffffffffffffffffffffffffffffffffffffffffffffff0382111561081f5761081e6107a5565b5b828201905092915050565b600082825260208201905092915050565b600061084682610714565b610850818561082a565b935061086081856020860161072a565b61086981610414565b840191505092915050565b7f4e487b7100000000000000000000000000000000000000000000000000000000600052602260045260246000fd5b600060028204905060018216806108bb57607f821691505b602082108114156108cf576108ce610874565b5b50919050565b60008190508160005260206000209050919050565b600081546108f7816108a3565b610901818661082a565b9450600182166000811461091c576001811461092e57610961565b60ff1983168652602086019350610961565b610937856108d5565b60005b838110156109595781548189015260018201915060208101905061093a565b808801955050505b50505092915050565b61097381610550565b82525050565b60006060820190508181036000830152610993818661083b565b905081810360208301526109a781856108ea565b90506109b6604083018461096a565b949350505050565b6000819050919050565b6000819050919050565b60006109ed6109e86109e3846109be565b6109c8565b610550565b9050919050565b6109fd816109d2565b82525050565b60006060820190508181036000830152610a1d818661083b565b90508181036020830152610a31818561083b565b9050610a4060408301846109f4565b94935050505056fea2646970667358221220da14217a560a2cb7dc7c56bb7c8363a4da17c496b267b534311928f69b6cbc7264736f6c634300080a0033",
  "immutableReferences": {},
  "source": "pragma solidity >=0.4.22 <0.9.0;\r\n\r\ncontract Donations {\r\n\r\n    struct Charity {\r\n        string id;\r\n        string name;\r\n        uint amount;\r\n    }\r\n\r\n    event CharityCreated(\r\n        string id,\r\n        string name,\r\n        uint amount\r\n    );\r\n\r\n    event AmountUpdated(\r\n        string id,\r\n        string name,\r\n        uint amount\r\n    );\r\n\r\n    event AmountTransferred(\r\n        string id,\r\n        string name,\r\n        uint amount\r\n    );\r\n\r\n    mapping(string => Charity) charities;\r\n\r\n    function createCharity(string memory _id, string memory _name) public {\r\n        charities[_id] = Charity(_id, _name, 0);\r\n        emit CharityCreated(_id, _name, 0);\r\n    }\r\n\r\n    function updateAmount(string memory _id, uint _amount) public {\r\n        charities[_id].amount = charities[_id].amount + _amount;\r\n        emit AmountUpdated(_id, charities[_id].name, charities[_id].amount);\r\n    }\r\n\r\n    function transferAmount(address _charityAddress, string memory _id) public payable {\r\n        uint _amount = charities[_id].amount;\r\n        address payable _address = payable(_charityAddress);\r\n        _address.transfer(_amount);\r\n        charities[_id].amount = 0;\r\n        emit AmountTransferred(_id, charities[_id].name, charities[_id].amount);\r\n    }\r\n}",
  "sourcePath": "C:\\Users\\Win 10 Pc\\Desktop\\EDAI\\Philanthropy-Blockchain-Project\\contracts\\Donations.sol",
  "compiler": {
    "name": "solc",
    "version": "0.8.10+commit.fc410830.Emscripten.clang"
  },
  "schemaVersion": "3.4.3",
  "updatedAt": "2021-12-06T12:15:49.580Z",
  "devdoc": {
    "kind": "dev",
    "methods": {},
    "version": 1
  },
  "userdoc": {
    "kind": "user",
    "methods": {},
    "version": 1
  }
}