{
  "contractName": "Donations",
  "abi": [
    {
      "anonymous": false,
      "inputs": [
        {
          "indexed": false,
          "internalType": "uint256",
          "name": "id",
          "type": "uint256"
        },
        {
          "indexed": false,
          "internalType": "string",
          "name": "name",
          "type": "string"
        },
        {
          "indexed": false,
          "internalType": "address payable",
          "name": "charityAccount",
          "type": "address"
        },
        {
          "indexed": false,
          "internalType": "uint256",
          "name": "amount",
          "type": "uint256"
        }
      ],
      "name": "CharityCreated",
      "type": "event"
    },
    {
      "anonymous": false,
      "inputs": [
        {
          "indexed": false,
          "internalType": "uint256",
          "name": "id",
          "type": "uint256"
        },
        {
          "indexed": false,
          "internalType": "string",
          "name": "name",
          "type": "string"
        },
        {
          "indexed": false,
          "internalType": "address payable",
          "name": "charityAccount",
          "type": "address"
        },
        {
          "indexed": false,
          "internalType": "uint256",
          "name": "amount",
          "type": "uint256"
        }
      ],
      "name": "DonationMade",
      "type": "event"
    },
    {
      "inputs": [
        {
          "internalType": "uint256",
          "name": "",
          "type": "uint256"
        }
      ],
      "name": "charities",
      "outputs": [
        {
          "internalType": "uint256",
          "name": "id",
          "type": "uint256"
        },
        {
          "internalType": "string",
          "name": "name",
          "type": "string"
        },
        {
          "internalType": "address payable",
          "name": "charityAccount",
          "type": "address"
        },
        {
          "internalType": "uint256",
          "name": "amount",
          "type": "uint256"
        }
      ],
      "stateMutability": "view",
      "type": "function"
    },
    {
      "inputs": [],
      "name": "count",
      "outputs": [
        {
          "internalType": "uint256",
          "name": "",
          "type": "uint256"
        }
      ],
      "stateMutability": "view",
      "type": "function"
    },
    {
      "inputs": [
        {
          "internalType": "string",
          "name": "_name",
          "type": "string"
        }
      ],
      "name": "createCharity",
      "outputs": [],
      "stateMutability": "nonpayable",
      "type": "function"
    },
    {
      "inputs": [
        {
          "internalType": "uint256",
          "name": "_id",
          "type": "uint256"
        }
      ],
      "name": "makeDonation",
      "outputs": [],
      "stateMutability": "payable",
      "type": "function"
    }
  ],
  "bytecode": "0x60806040526000805534801561001457600080fd5b50610b5e806100246000396000f3fe60806040526004361061003f5760003560e01c806306661abd1461004457806364be55481461006f578063b219f91614610098578063fb709d2e146100b4575b600080fd5b34801561005057600080fd5b506100596100f4565b604051610066919061063c565b60405180910390f35b34801561007b57600080fd5b50610096600480360381019061009191906107b1565b6100fa565b005b6100b260048036038101906100ad9190610826565b61022b565b005b3480156100c057600080fd5b506100db60048036038101906100d69190610826565b6104a8565b6040516100eb949392919061091c565b60405180910390f35b60005481565b600081511161010857600080fd5b60008081548092919061011a90610997565b9190505550604051806080016040528060005481526020018281526020013373ffffffffffffffffffffffffffffffffffffffff16815260200160008152506001600080548152602001908152602001600020600082015181600001556020820151816001019080519060200190610193929190610580565b5060408201518160020160006101000a81548173ffffffffffffffffffffffffffffffffffffffff021916908373ffffffffffffffffffffffffffffffffffffffff160217905550606082015181600301559050507fe6780a115881482643051bb9b4d0282ebf784518e24bb072460f3a5b0542f712600054823360006040516102209493929190610a25565b60405180910390a150565b60008111801561023d57506000548111155b61024657600080fd5b6000600160008381526020019081526020016000206040518060800160405290816000820154815260200160018201805461028090610aa0565b80601f01602080910402602001604051908101604052809291908181526020018280546102ac90610aa0565b80156102f95780601f106102ce576101008083540402835291602001916102f9565b820191906000526020600020905b8154815290600101906020018083116102dc57829003601f168201915b505050505081526020016002820160009054906101000a900473ffffffffffffffffffffffffffffffffffffffff1673ffffffffffffffffffffffffffffffffffffffff1673ffffffffffffffffffffffffffffffffffffffff1681526020016003820154815250509050806040015173ffffffffffffffffffffffffffffffffffffffff166108fc349081150290604051600060405180830381858888f193505050501580156103ae573d6000803e3d6000fd5b503481606001516103bf9190610ad2565b8160600181815250508060016000848152602001908152602001600020600082015181600001556020820151816001019080519060200190610402929190610580565b5060408201518160020160006101000a81548173ffffffffffffffffffffffffffffffffffffffff021916908373ffffffffffffffffffffffffffffffffffffffff160217905550606082015181600301559050507f8b467d6c4f91a5778b10d281906cf85b4e169d206e6a13058ebefaf509a36a31816000015182602001518360400151846060015160405161049c949392919061091c565b60405180910390a15050565b60016020528060005260406000206000915090508060000154908060010180546104d190610aa0565b80601f01602080910402602001604051908101604052809291908181526020018280546104fd90610aa0565b801561054a5780601f1061051f5761010080835404028352916020019161054a565b820191906000526020600020905b81548152906001019060200180831161052d57829003601f168201915b5050505050908060020160009054906101000a900473ffffffffffffffffffffffffffffffffffffffff16908060030154905084565b82805461058c90610aa0565b90600052602060002090601f0160209004810192826105ae57600085556105f5565b82601f106105c757805160ff19168380011785556105f5565b828001600101855582156105f5579182015b828111156105f45782518255916020019190600101906105d9565b5b5090506106029190610606565b5090565b5b8082111561061f576000816000905550600101610607565b5090565b6000819050919050565b61063681610623565b82525050565b6000602082019050610651600083018461062d565b92915050565b6000604051905090565b600080fd5b600080fd5b600080fd5b600080fd5b6000601f19601f8301169050919050565b7f4e487b7100000000000000000000000000000000000000000000000000000000600052604160045260246000fd5b6106be82610675565b810181811067ffffffffffffffff821117156106dd576106dc610686565b5b80604052505050565b60006106f0610657565b90506106fc82826106b5565b919050565b600067ffffffffffffffff82111561071c5761071b610686565b5b61072582610675565b9050602081019050919050565b82818337600083830152505050565b600061075461074f84610701565b6106e6565b9050828152602081018484840111156107705761076f610670565b5b61077b848285610732565b509392505050565b600082601f8301126107985761079761066b565b5b81356107a8848260208601610741565b91505092915050565b6000602082840312156107c7576107c6610661565b5b600082013567ffffffffffffffff8111156107e5576107e4610666565b5b6107f184828501610783565b91505092915050565b61080381610623565b811461080e57600080fd5b50565b600081359050610820816107fa565b92915050565b60006020828403121561083c5761083b610661565b5b600061084a84828501610811565b91505092915050565b600081519050919050565b600082825260208201905092915050565b60005b8381101561088d578082015181840152602081019050610872565b8381111561089c576000848401525b50505050565b60006108ad82610853565b6108b7818561085e565b93506108c781856020860161086f565b6108d081610675565b840191505092915050565b600073ffffffffffffffffffffffffffffffffffffffff82169050919050565b6000610906826108db565b9050919050565b610916816108fb565b82525050565b6000608082019050610931600083018761062d565b818103602083015261094381866108a2565b9050610952604083018561090d565b61095f606083018461062d565b95945050505050565b7f4e487b7100000000000000000000000000000000000000000000000000000000600052601160045260246000fd5b60006109a282610623565b91507fffffffffffffffffffffffffffffffffffffffffffffffffffffffffffffffff8214156109d5576109d4610968565b5b600182019050919050565b6000819050919050565b6000819050919050565b6000610a0f610a0a610a05846109e0565b6109ea565b610623565b9050919050565b610a1f816109f4565b82525050565b6000608082019050610a3a600083018761062d565b8181036020830152610a4c81866108a2565b9050610a5b604083018561090d565b610a686060830184610a16565b95945050505050565b7f4e487b7100000000000000000000000000000000000000000000000000000000600052602260045260246000fd5b60006002820490506001821680610ab857607f821691505b60208210811415610acc57610acb610a71565b5b50919050565b6000610add82610623565b9150610ae883610623565b9250827fffffffffffffffffffffffffffffffffffffffffffffffffffffffffffffffff03821115610b1d57610b1c610968565b5b82820190509291505056fea2646970667358221220ea6c7de8446426dc5c3abee0317813e18408abfbfcced86c61aedcc60627105264736f6c634300080a0033",
  "immutableReferences": {},
  "source": "pragma solidity >=0.4.22 <0.9.0;\r\n\r\ncontract Donations {\r\n    uint public count = 0;\r\n\r\n    struct Charity {\r\n        uint id;\r\n        string name;\r\n        address payable charityAccount;\r\n        uint amount;\r\n    }\r\n\r\n    event CharityCreated(\r\n        uint id,\r\n        string name,\r\n        address payable charityAccount,\r\n        uint amount\r\n    );\r\n\r\n    event DonationMade(\r\n        uint id,\r\n        string name,\r\n        address payable charityAccount,\r\n        uint amount\r\n    );\r\n\r\n    mapping(uint => Charity) public charities;\r\n\r\n    function createCharity(string memory _name) public {\r\n        require(bytes(_name).length > 0);\r\n        count++;\r\n        charities[count] = Charity(count, _name, payable(msg.sender), 0);\r\n        emit CharityCreated(count, _name, payable(msg.sender), 0);\r\n    }\r\n\r\n    function makeDonation(uint _id) public payable {\r\n        require(_id > 0 && _id <= count);\r\n        Charity memory _charity = charities[_id];\r\n        _charity.charityAccount.transfer(msg.value);\r\n        _charity.amount = _charity.amount + msg.value;\r\n        charities[_id] = _charity;\r\n        emit DonationMade(_charity.id, _charity.name, _charity.charityAccount, _charity.amount);\r\n    }\r\n}",
  "sourcePath": "C:\\Users\\Win 10 Pc\\Desktop\\EDAI\\Philanthropy-Blockchain-Project\\contracts\\Donations.sol",
  "compiler": {
    "name": "solc",
    "version": "0.8.10+commit.fc410830.Emscripten.clang"
  },
  "schemaVersion": "3.4.3",
  "updatedAt": "2021-12-04T09:43:34.943Z",
  "devdoc": {
    "kind": "dev",
    "methods": {},
    "version": 1
  },
  "userdoc": {
    "kind": "user",
    "methods": {},
    "version": 1
  }
}