{
  "contractName": "Donations",
  "abi": [
    {
      "anonymous": false,
      "inputs": [
        {
          "indexed": false,
          "internalType": "string",
          "name": "id",
          "type": "string"
        },
        {
          "indexed": false,
          "internalType": "string",
          "name": "name",
          "type": "string"
        },
        {
          "indexed": false,
          "internalType": "uint256",
          "name": "amount",
          "type": "uint256"
        }
      ],
      "name": "AmountTransferred",
      "type": "event"
    },
    {
      "anonymous": false,
      "inputs": [
        {
          "indexed": false,
          "internalType": "string",
          "name": "id",
          "type": "string"
        },
        {
          "indexed": false,
          "internalType": "string",
          "name": "name",
          "type": "string"
        },
        {
          "indexed": false,
          "internalType": "uint256",
          "name": "amount",
          "type": "uint256"
        }
      ],
      "name": "AmountUpdated",
      "type": "event"
    },
    {
      "anonymous": false,
      "inputs": [
        {
          "indexed": false,
          "internalType": "string",
          "name": "id",
          "type": "string"
        },
        {
          "indexed": false,
          "internalType": "string",
          "name": "name",
          "type": "string"
        },
        {
          "indexed": false,
          "internalType": "uint256",
          "name": "amount",
          "type": "uint256"
        }
      ],
      "name": "CharityCreated",
      "type": "event"
    },
    {
      "inputs": [
        {
          "internalType": "string",
          "name": "_id",
          "type": "string"
        },
        {
          "internalType": "string",
          "name": "_name",
          "type": "string"
        }
      ],
      "name": "createCharity",
      "outputs": [],
      "stateMutability": "nonpayable",
      "type": "function"
    },
    {
      "inputs": [
        {
          "internalType": "string",
          "name": "_id",
          "type": "string"
        }
      ],
      "name": "updateAmount",
      "outputs": [],
      "stateMutability": "payable",
      "type": "function",
      "payable": true
    },
    {
      "inputs": [
        {
          "internalType": "address",
          "name": "_charityAddress",
          "type": "address"
        },
        {
          "internalType": "string",
          "name": "_id",
          "type": "string"
        }
      ],
      "name": "transferAmount",
      "outputs": [],
      "stateMutability": "nonpayable",
      "type": "function"
    }
  ],
  "bytecode": "0x608060405234801561001057600080fd5b50610a3e806100206000396000f3fe6080604052600436106100345760003560e01c80636f0995141461003957806397b4fc2c14610055578063e9792a261461007e575b600080fd5b610053600480360381019061004e919061054f565b6100a7565b005b34801561006157600080fd5b5061007c60048036038101906100779190610598565b610178565b005b34801561008a57600080fd5b506100a560048036038101906100a0919061066e565b610239565b005b346000826040516100b89190610744565b9081526020016040518091039020600201546100d49190610794565b6000826040516100e49190610744565b9081526020016040518091039020600201819055507fd8478a37684a273716190aa42fd0e5d376fac7a3486cc6e9bfb59af1fc089b238160008360405161012b9190610744565b908152602001604051809103902060010160008460405161014c9190610744565b90815260200160405180910390206002015460405161016d93929190610939565b60405180910390a150565b604051806060016040528083815260200182815260200160008152506000836040516101a49190610744565b908152602001604051809103902060008201518160000190805190602001906101ce929190610352565b5060208201518160010190805190602001906101eb929190610352565b50604082015181600201559050507fe8ab2a8ab146dd58143f5870b36abd6413828ca11f5cf4f980bab575072183628282600060405161022d939291906109c3565b60405180910390a15050565b6000808260405161024a9190610744565b908152602001604051809103902060020154905060008390508073ffffffffffffffffffffffffffffffffffffffff166108fc839081150290604051600060405180830381858888f193505050501580156102a9573d6000803e3d6000fd5b50600080846040516102bb9190610744565b9081526020016040518091039020600201819055507f155114d46fb010fc5c1a79c9312e2e407d3dca04e6b73240f1ee4cc6e812fc8b836000856040516103029190610744565b90815260200160405180910390206001016000866040516103239190610744565b90815260200160405180910390206002015460405161034493929190610939565b60405180910390a150505050565b82805461035e90610863565b90600052602060002090601f01602090048101928261038057600085556103c7565b82601f1061039957805160ff19168380011785556103c7565b828001600101855582156103c7579182015b828111156103c65782518255916020019190600101906103ab565b5b5090506103d491906103d8565b5090565b5b808211156103f15760008160009055506001016103d9565b5090565b6000604051905090565b600080fd5b600080fd5b600080fd5b600080fd5b6000601f19601f8301169050919050565b7f4e487b7100000000000000000000000000000000000000000000000000000000600052604160045260246000fd5b61045c82610413565b810181811067ffffffffffffffff8211171561047b5761047a610424565b5b80604052505050565b600061048e6103f5565b905061049a8282610453565b919050565b600067ffffffffffffffff8211156104ba576104b9610424565b5b6104c382610413565b9050602081019050919050565b82818337600083830152505050565b60006104f26104ed8461049f565b610484565b90508281526020810184848401111561050e5761050d61040e565b5b6105198482856104d0565b509392505050565b600082601f83011261053657610535610409565b5b81356105468482602086016104df565b91505092915050565b600060208284031215610565576105646103ff565b5b600082013567ffffffffffffffff81111561058357610582610404565b5b61058f84828501610521565b91505092915050565b600080604083850312156105af576105ae6103ff565b5b600083013567ffffffffffffffff8111156105cd576105cc610404565b5b6105d985828601610521565b925050602083013567ffffffffffffffff8111156105fa576105f9610404565b5b61060685828601610521565b9150509250929050565b600073ffffffffffffffffffffffffffffffffffffffff82169050919050565b600061063b82610610565b9050919050565b61064b81610630565b811461065657600080fd5b50565b60008135905061066881610642565b92915050565b60008060408385031215610685576106846103ff565b5b600061069385828601610659565b925050602083013567ffffffffffffffff8111156106b4576106b3610404565b5b6106c085828601610521565b9150509250929050565b600081519050919050565b600081905092915050565b60005b838110156106fe5780820151818401526020810190506106e3565b8381111561070d576000848401525b50505050565b600061071e826106ca565b61072881856106d5565b93506107388185602086016106e0565b80840191505092915050565b60006107508284610713565b915081905092915050565b6000819050919050565b7f4e487b7100000000000000000000000000000000000000000000000000000000600052601160045260246000fd5b600061079f8261075b565b91506107aa8361075b565b9250827fffffffffffffffffffffffffffffffffffffffffffffffffffffffffffffffff038211156107df576107de610765565b5b828201905092915050565b600082825260208201905092915050565b6000610806826106ca565b61081081856107ea565b93506108208185602086016106e0565b61082981610413565b840191505092915050565b7f4e487b7100000000000000000000000000000000000000000000000000000000600052602260045260246000fd5b6000600282049050600182168061087b57607f821691505b6020821081141561088f5761088e610834565b5b50919050565b60008190508160005260206000209050919050565b600081546108b781610863565b6108c181866107ea565b945060018216600081146108dc57600181146108ee57610921565b60ff1983168652602086019350610921565b6108f785610895565b60005b83811015610919578154818901526001820191506020810190506108fa565b808801955050505b50505092915050565b6109338161075b565b82525050565b6000606082019050818103600083015261095381866107fb565b9050818103602083015261096781856108aa565b9050610976604083018461092a565b949350505050565b6000819050919050565b6000819050919050565b60006109ad6109a86109a38461097e565b610988565b61075b565b9050919050565b6109bd81610992565b82525050565b600060608201905081810360008301526109dd81866107fb565b905081810360208301526109f181856107fb565b9050610a0060408301846109b4565b94935050505056fea2646970667358221220425d1e6da593b5e7e778edfba99e4ee1c3f2043f1cd9f96cc4258cc4844c084564736f6c634300080a0033",
  "immutableReferences": {},
  "source": "pragma solidity >=0.4.22 <0.9.0;\r\n\r\ncontract Donations {\r\n\r\n    struct Charity {\r\n        string id;\r\n        string name;\r\n        uint amount;\r\n    }\r\n\r\n    event CharityCreated(\r\n        string id,\r\n        string name,\r\n        uint amount\r\n    );\r\n\r\n    event AmountUpdated(\r\n        string id,\r\n        string name,\r\n        uint amount\r\n    );\r\n\r\n    event AmountTransferred(\r\n        string id,\r\n        string name,\r\n        uint amount\r\n    );\r\n\r\n    mapping(string => Charity) charities;\r\n\r\n    function createCharity(string memory _id, string memory _name) public {\r\n        charities[_id] = Charity(_id, _name, 0);\r\n        emit CharityCreated(_id, _name, 0);\r\n    }\r\n\r\n    function updateAmount(string memory _id) public payable {\r\n        charities[_id].amount = charities[_id].amount + msg.value;\r\n        emit AmountUpdated(_id, charities[_id].name, charities[_id].amount);\r\n    }\r\n\r\n    function transferAmount(address _charityAddress, string memory _id) public {\r\n        uint _amount = charities[_id].amount;\r\n        address payable _address = payable(_charityAddress);\r\n        _address.transfer(_amount);\r\n        charities[_id].amount = 0;\r\n        emit AmountTransferred(_id, charities[_id].name, charities[_id].amount);\r\n    }\r\n}",
  "sourcePath": "C:\\Users\\Win 10 Pc\\Desktop\\EDAI\\Philanthropy-Blockchain-Project\\contracts\\Donations.sol",
  "compiler": {
    "name": "solc",
    "version": "0.8.10+commit.fc410830.Emscripten.clang"
  },
  "schemaVersion": "3.4.3",
  "updatedAt": "2021-12-06T18:42:37.819Z",
  "networkType": "ethereum",
  "devdoc": {
    "kind": "dev",
    "methods": {},
    "version": 1
  },
  "userdoc": {
    "kind": "user",
    "methods": {},
    "version": 1
  }
}